{"abi":[{"type":"constructor","inputs":[{"name":"_name","type":"string","internalType":"string"},{"name":"_symbol","type":"string","internalType":"string"}],"stateMutability":"nonpayable"},{"type":"function","name":"balanceOf","inputs":[{"name":"","type":"address","internalType":"address"}],"outputs":[{"name":"","type":"uint256","internalType":"uint256"}],"stateMutability":"view"},{"type":"function","name":"decimals","inputs":[],"outputs":[{"name":"","type":"uint8","internalType":"uint8"}],"stateMutability":"view"},{"type":"function","name":"mint","inputs":[{"name":"to","type":"address","internalType":"address"},{"name":"amount","type":"uint256","internalType":"uint256"}],"outputs":[],"stateMutability":"nonpayable"},{"type":"function","name":"name","inputs":[],"outputs":[{"name":"","type":"string","internalType":"string"}],"stateMutability":"view"},{"type":"function","name":"symbol","inputs":[],"outputs":[{"name":"","type":"string","internalType":"string"}],"stateMutability":"view"},{"type":"function","name":"totalSupply","inputs":[],"outputs":[{"name":"","type":"uint256","internalType":"uint256"}],"stateMutability":"view"},{"type":"function","name":"transfer","inputs":[{"name":"to","type":"address","internalType":"address"},{"name":"amount","type":"uint256","internalType":"uint256"}],"outputs":[{"name":"","type":"bool","internalType":"bool"}],"stateMutability":"nonpayable"}],"bytecode":{"object":"0x608060405234801561000f575f80fd5b5060405161067a38038061067a83398101604081905261002e91610105565b5f61003983826101e8565b50600161004682826101e8565b5050506102a7565b634e487b7160e01b5f52604160045260245ffd5b5f82601f830112610071575f80fd5b81516001600160401b038082111561008b5761008b61004e565b604051601f8301601f19908116603f011681019082821181831017156100b3576100b361004e565b81604052838152602092508660208588010111156100cf575f80fd5b5f91505b838210156100f057858201830151818301840152908201906100d3565b5f602085830101528094505050505092915050565b5f8060408385031215610116575f80fd5b82516001600160401b038082111561012c575f80fd5b61013886838701610062565b9350602085015191508082111561014d575f80fd5b5061015a85828601610062565b9150509250929050565b600181811c9082168061017857607f821691505b60208210810361019657634e487b7160e01b5f52602260045260245ffd5b50919050565b601f8211156101e357805f5260205f20601f840160051c810160208510156101c15750805b601f840160051c820191505b818110156101e0575f81556001016101cd565b50505b505050565b81516001600160401b038111156102015761020161004e565b6102158161020f8454610164565b8461019c565b602080601f831160018114610248575f84156102315750858301515b5f19600386901b1c1916600185901b17855561029f565b5f85815260208120601f198616915b8281101561027657888601518255948401946001909101908401610257565b508582101561029357878501515f19600388901b60f8161c191681555b505060018460011b0185555b505050505050565b6103c6806102b45f395ff3fe608060405234801561000f575f80fd5b506004361061007a575f3560e01c806340c10f191161005857806340c10f19146100cd57806370a08231146100e257806395d89b4114610101578063a9059cbb14610109575f80fd5b806306fdde031461007e57806318160ddd1461009c578063313ce567146100b3575b5f80fd5b61008661012c565b604051610093919061028a565b60405180910390f35b6100a560025481565b604051908152602001610093565b6100bb601281565b60405160ff9091168152602001610093565b6100e06100db3660046102f1565b6101b7565b005b6100a56100f0366004610319565b60036020525f908152604090205481565b6100866101fd565b61011c6101173660046102f1565b61020a565b6040519015158152602001610093565b5f805461013890610339565b80601f016020809104026020016040519081016040528092919081815260200182805461016490610339565b80156101af5780601f10610186576101008083540402835291602001916101af565b820191905f5260205f20905b81548152906001019060200180831161019257829003601f168201915b505050505081565b8060025f8282546101c89190610371565b90915550506001600160a01b0382165f90815260036020526040812080548392906101f4908490610371565b90915550505050565b6001805461013890610339565b335f90815260036020526040812054828110156102575760405162461bcd60e51b815260206004820152600760248201526662616c616e636560c81b604482015260640160405180910390fd5b335f90815260036020526040808220928590039092556001600160a01b0385168152208054830190555060015b92915050565b5f602080835283518060208501525f5b818110156102b65785810183015185820160400152820161029a565b505f604082860101526040601f19601f8301168501019250505092915050565b80356001600160a01b03811681146102ec575f80fd5b919050565b5f8060408385031215610302575f80fd5b61030b836102d6565b946020939093013593505050565b5f60208284031215610329575f80fd5b610332826102d6565b9392505050565b600181811c9082168061034d57607f821691505b60208210810361036b57634e487b7160e01b5f52602260045260245ffd5b50919050565b8082018082111561028457634e487b7160e01b5f52601160045260245ffdfea26469706673582212205188510ef83b765cb351fa2b018ccaa8f2cd0a73f412d15453009e924bd0e10f64736f6c63430008180033","linkReferences":{}},"methodIdentifiers":{"balanceOf(address)":"70a08231","decimals()":"313ce567","mint(address,uint256)":"40c10f19","name()":"06fdde03","symbol()":"95d89b41","totalSupply()":"18160ddd","transfer(address,uint256)":"a9059cbb"},"id":22}